:100000000C946B000C9493000C9493000C9493004C
:100010000C9493000C9493000C9493000C94740231
:100020000C9493000C9493000C9493000C94930004
:100030000C9493000C9493000C9493000C949300F4
:100040000C9418030C9493000C9493000C9493005C
:100050000C9493000C9493000C9493000C949300D4
:100060000C9477050C9493007E1A801A841A111B45
:10007000C11B541C5B1C1F1C1F1E1F1E1F1F1E1F8D
:100080001E1F00000008000201000003040700001A
:100090000000000000000200000000250028002BE6
:1000A0000000000000240027002A000404040404C7
:1000B0000404040202020202020303030303030115
:1000C00002040810204080010204081020010204EC
:1000D00008102000B41D11241FBECFEFD8E0DEBFF2
:1000E000CDBF26E0A4E6B5E001C01D92A739B20756
:1000F000E1F715E0A0E0B1E0ECE6F7E402C005901E
:100100000D92A436B107D9F710E0CBE6D0E004C0D9
:100110002197FE010E94F41ECA36D107C9F70E943A
:100120001D120C94B4230C940000CF92DF92EF9236
:10013000FF920F931F93CF93DF936C017A018B0192
:10014000C0E0D0E0CE15DF0589F0D8016D918D01BA
:10015000D601ED91FC910190F081E02DC601099549
:10016000892B11F47E0102C02196ECCFC701DF91EB
:10017000CF911F910F91FF90EF90DF90CF90089556
:1001800085ED8093BC008091BC0084FDFCCF109273
:10019000350608954091BE05262F30E0240F311D0D
:1001A00021323105DCF4209135062430C9F4FC01FC
:1001B00080E090E0861758F43091BE052191DC0173
:1001C000A456BA4FA30FB11D2C930196F3CF809183
:1001D000BE05680F6093BE0580E0089581E0089534
:1001E00082E008950895E0910E0680910D06E817CB
:1001F00030F4F0E0ED51FA4F808190E008958FEFF8
:100200009FEF089590910E0680910D06981750F477
:10021000E92FF0E0ED51FA4F208130E09F5F90939D
:100220000E0602C02FEF3FEFC901089580910D0621
:1002300090E020910E06821B91090895CF92DF92E3
:10024000EF92FF920F931F93CF93DF937C01262FA2
:10025000972F8A0180913606882391F0C62FD72FD9
:100260006E01C40ED51ECC15DD0571F06991D70164
:10027000ED91FC910190F081E02DC7010995F3CF3C
:10028000642F822F0E94CA00C801DF91CF911F9175
:100290000F91FF90EF90DF90CF900895CF93DF9371
:1002A0001F92CDB7DEB76983209136062223D1F0A5
:1002B00020915906203240F021E030E0FC013383E8
:1002C000228380E090E015C080913706E82FF0E0AF
:1002D000E85CF94F998190838F5F80933706809314
:1002E000590605C061E0CE0101960E94CA0081E076
:1002F00090E00F90DF91CF910895089580E090E015
:1003000008950E94F120FC01248135816217730752
:1003100020F480819181009729F410920C068CE0E2
:1003200096E00895860F971F08950F931F93CF931C
:10033000DF93EC0188819981009729F02A813B8124
:100340002617370788F48B016F5F7F4F0E942720A5
:10035000009761F0998388831B830A832C813D81F8
:10036000232B11F4FC01108281E001C080E0DF91B9
:10037000CF911F910F910895CF93DF93EC01888166
:100380009981009711F00E948F1F198218821D8297
:100390001C821B821A82DF91CF910895EF92FF9207
:1003A0000F931F93CF93DF93EC017B018A01BA0176
:1003B0000E949501811104C0CE010E94BC0107C0BA
:1003C0001D830C83B701888199810E94FF20CE0193
:1003D000DF91CF911F910F91FF90EF900895EF92D1
:1003E000FF920F931F93CF93DF93CDB7DEB729977B
:1003F0000FB6F894DEBF0FBECDBF8C01862FF8017B
:1004000011821082138212821582148250E09E01A2
:100410002F5F3F4F7901B90190E00E94E31DF70182
:1004200001900020E9F73197AF014E195F09B7013C
:10043000C8010E94CE0129960FB6F894DEBF0FBE08
:10044000CDBFDF91CF911F910F91FF90EF90089555
:1004500090E0FC01EE57FF4F3491FC01E154FF4F57
:100460002491FC01E555FF4FE491EE2309F43BC0D4
:10047000332339F1333091F038F43130A9F0323090
:1004800001F584B58F7D12C0373091F03830A1F07E
:100490003430B9F4809180008F7D03C0809180005A
:1004A0008F77809380000DC084B58F7784BD09C09D
:1004B0008091B0008F7703C08091B0008F7D8093D2
:1004C000B000F0E0EE0FFF1FE956FF4FA591B49189
:1004D0008FB7F894EC91611103C020952E2301C0D1
:1004E0002E2B2C938FBF08951F920F920FB60F9251
:1004F00011242F933F934F935F936F937F938F9329
:100500009F93AF93BF93EF93FF9380915D0690917C
:100510005E06A0915F06B0916006892B8A2B8B2B1B
:1005200059F180915A06E0915B06F0915C0690814A
:100530008927808380915D0690915E06A0915F0679
:10054000B0916006181619061A061B060CF03DC07D
:1005500080915D0690915E06A0915F06B091600665
:100560000197A109B10980935D0690935E06A0935F
:100570005F06B093600629C080914801E6E9F0E08B
:10058000E4919FEF90934801E130B9F098F0E230A8
:10059000C9F4909170009D7F9093700091E09093CA
:1005A000B0009091B100987F94609093B100109248
:1005B000B30008C010926E0005C090916F009D7F3F
:1005C00090936F0060E00E942802FF91EF91BF912D
:1005D000AF919F918F917F916F915F914F913F91DB
:1005E0002F910F900FBE0F901F901895CF93DF9310
:1005F000EC0160E08E810E94280261E08E810E9401
:10060000280260E08E810E9428028BE891E0019729
:10061000F1F7DF91CF9108952FB7F8946091080614
:100620007091090680910A0690910B062FBF0895DC
:100630001F920F920FB60F9211242F933F938F9317
:100640009F93AF93BF938091080690910906A09164
:100650000A06B0910B063091070623E0230F2D37D1
:1006600020F40196A11DB11D05C026E8230F0296B6
:10067000A11DB11D209307068093080690930906DB
:10068000A0930A06B0930B0680910306909104068E
:10069000A0910506B09106060196A11DB11D80939B
:1006A000030690930406A0930506B0930606BF9137
:1006B000AF919F918F913F912F910F900FBE0F900F
:1006C0001F901895CF92DF92EF92FF920F931F9396
:1006D000CF93DF937C016C0187E0C80ED11CC0E092
:1006E000D0E0062F10E0B8010C2E02C0759567957A
:1006F0000A94E2F76170F60181916F010E9428026D
:100700002196C430D10579F7C701DF91CF911F91B0
:100710000F91FF90EF90DF90CF900C94F602CF9264
:10072000DF92EF92FF920F931F93CF93DF93EC0131
:10073000F62E642F8C810E9428028D818F3F19F044
:1007400060E00E9428028F850F2D10E084FF25C0F5
:100750006E0187E0C80ED11CE12CF12CB8010E2CE3
:1007600002C0759567950A94E2F76170F601819170
:100770006F010E942802FFEFEF1AFF0A88E0E816D7
:10078000F10461F7CE01DF91CF911F910F91FF909E
:10079000EF90DF90CF900C94F602B80184E075954D
:1007A00067958A95E1F7CE010E9462036F2DCE0115
:1007B000DF91CF911F910F91FF90EF90DF90CF903D
:1007C0000C94620341E00E948F0381E090E0089561
:1007D00040E00C948F03CF92DF92EF92FF920F9341
:1007E0001F93CF93DF93EC0181E08093360688E678
:1007F00080935806109237061092590660E081E601
:1008000096E00E944E010E94591180913506811197
:10081000FCCF81E080933506809334069FEF909360
:1008200033061092320696E09093310680931006BC
:1008300080911006806D8093100680910F068130A4
:1008400061F410920F06809110068093BB00809196
:10085000BC0083FDF8CF85EC01C085EE8093BC0021
:10086000809135068130E1F380913206873018F4AB
:100870008091320601C087E0A1E1B6E023EE35E0C9
:10088000F9019E2F921B981718F49D919193F9CF1F
:1008900010920E0680930D0681E696E00E940201FA
:1008A0008F77982F92959F701AEF082F919F000DC8
:1008B000112481E696E00E9402019C01332794E016
:1008C000359527959A95E1F7F82E129FF00C112493
:1008D00081E696E00E9402019C01332744E03595B1
:1008E00027954A95E1F7E82E129FE00C112481E646
:1008F00096E00E94020181E696E00E9402019C01BE
:10090000332754E0359527955A95E1F7D82E129F55
:10091000D00C112481E696E00E9402019C0133274D
:1009200064E0359527956A95E1F7C82E129FC00CB3
:10093000112481E696E00E9402019C01332774E0B5
:10094000359527957A95E1F7129F800D11248883BC
:10095000C982DA82EB82FC820D83CE01DF91CF91D6
:100960001F910F91FF90EF90DF90CF9008950F931C
:100970001F93CF938C0181E08093360688E68093A5
:100980005806109237061092590660E081E696E00C
:100990000E944E01F8012581CAE0822F6C2F0E942F
:1009A0007F1E682F660F860F682F660F620F81E625
:1009B00096E00E944E01F8012481822F6C2F0E9444
:1009C0007F1E682F660F860F682F660F620F81E605
:1009D00096E00E944E01F8012381822F6C2F0E9425
:1009E0007F1E682F660F860F682F660F620F81E6E5
:1009F00096E00E944E0160E081E696E00E944E0182
:100A0000F8012281822F6C2F0E947F1E682F660FB3
:100A1000860F682F660F620F81E696E00E944E01F6
:100A2000F8012181822F6C2F0E947F1E682F660F94
:100A3000860F682F660F620F81E696E00E944E01D6
:100A4000F8012081822F6C2F0E947F1E682F660F75
:100A5000860F682F660F620F81E696E00E944E01B6
:100A6000CF911F910F910C945911803D27E092076F
:100A700010F0805D974050E0E6E7F0E021E02E1BAB
:100A8000322F3E0F361728F43491430F511D319603
:100A9000F7CF633038F09C0123703327232B11F4F8
:100AA0004F5F5F4F2DE631E0829FB001839F700D55
:100AB000929F700D1124615071099C012D5F3F4F71
:100AC0003695279536952795CB01820F931F840F76
:100AD000951F0895FC0180814281618190E00E9410
:100AE0003505069667E070E00E948B1E08951F9200
:100AF0000F920FB60F9211242F933F934F935F9352
:100B00006F937F938F939F93AF93BF93EF93FF93D5
:100B10008091B900887F803609F49CC068F58832DE
:100B200009F45BC090F4803109F454C038F4882390
:100B300009F4F6C0883009F44DC0F6C0883109F4D4
:100B40004CC0803209F45DC0EFC0803409F468C045
:100B500048F4803309F455C0883309F0E5C0809328
:100B60003306D8C0803509F44FC0883509F45DC01C
:100B7000883409F0D9C0D6C0883909F4C7C0A8F4B0
:100B8000883709F467C038F4883609F463C08037C1
:100B900009F460C0C9C0883809F4B8C0803909F4C4
:100BA0005FC0803809F0C0C05BC0803B09F486C0DC
:100BB00038F4803A09F466C0883A09F47FC0B4C0BA
:100BC000803C09F4A7C0883C09F4A4C0883B09F420
:100BD0008AC0AAC08091100610C090913206809100
:100BE0003106981770F5E091320681E08E0F809300
:100BF0003206F0E0EF5EF94F80818093BB0085EC18
:100C000086C0809333068EC0E091320681E08E0F5D
:100C1000809332068091BB00F0E0EF5EF94F808355
:100C200090913206809131066EC0E091320681E0EB
:100C30008E0F809332068091BB00F0E0EF5EF94F9B
:100C400080838091340681116DC081E080930F060E
:100C500084EA61C083E0809335061092E205CFCF2D
:100C60008091E205803208F051C0E091E20581E018
:100C70008E0F8093E2058091BB00F0E0EE53FA4FB7
:100C80008083BDCF85EC8093BC00109235068091A7
:100C9000E205803230F4E091E205F0E0EE53FA4FE5
:100CA00010826091E20570E0E091C005F091C1050D
:100CB00082EC95E009951092E20536C084E08093BD
:100CC00035061092BF051092BE05E091BC05F0916B
:100CD000BD0509958091BE05811105C081E0809315
:100CE000BE0510929C05E091BF0581E08E0F8093B8
:100CF000BF05F0E0E456FA4F80818093BB009091ED
:100D0000BF058091BE05981708F479CF85E88093D8
:100D1000BC000AC085EC8093BC001092350604C06C
:100D2000109233060E94C000FF91EF91BF91AF91E6
:100D30009F918F917F916F915F914F913F912F91F3
:100D40000F900FBE0F901F9018950C94201E0C94BE
:100D5000181ECF92DF92EF92FF927C010E940C034B
:100D60009B01AC012E0D3F1D411D511D69017A01F2
:100D70000E940C036C157D058E059F05C8F3FF903E
:100D8000EF90DF90CF90089588E694E00E94340EB3
:100D9000809138018823A1F044E650E060E070E0E3
:100DA00080E793E00E94460E88E790E00E94A90643
:100DB00044EF51E060E070E080E793E00E94460E6F
:100DC00061E08FE00E94280280913E0124E6829F2C
:100DD000C00111240E94A90660E08FE00E94280251
:100DE00084EF91E00C94A906EF92FF920F931F936A
:100DF000CF93DF93CDB7DEB7C958D1090FB6F894BA
:100E0000DEBF0FBECDBF082F88E8EBEDF1E0DE01BD
:100E1000119601900D928A95E1F711E1E62EF12CE1
:100E200081E090E08C0F9D1F169F800D911D112475
:100E30009F938F931F921F938CE795E09F938F93BF
:100E4000C757DF4F6883C958D0400E9406218FEFF3
:100E5000E81AF80A1E9D90011F9D300D112481E0B3
:100E600090E08C0F9D1F280F391F3F932F931F92E7
:100E70001F938AE695E09F938F930E94062183E05B
:100E80000E94EC08C757DF4F6881C958D040061B45
:100E9000602F80E00E941F0E62E08DE696E00E94C7
:100EA000E2030FB6F894DEBF0FBECDBFC757DF4FCA
:100EB0000FB6F894DEBF0FBECDBFDF91CF911F916B
:100EC0000F91FF90EF900895EF92FF920F931F9371
:100ED000CF93DF93CDB7DEB7C655D1090FB6F894DF
:100EE000DEBF0FBECDBF082F85E5E3E6F2E0DE01F1
:100EF000119601900D928A95E1F711E1E62EF12C01
:100F000081E090E08C0F9D1F169F800D911D112494
:100F10009F938F931F921F938CE795E09F938F93DE
:100F200067966FAF67970E9406218FEFE81AF80A5D
:100F30001E9D90011F9D300D112481E090E08C0FCB
:100F40009D1F280F391F3F932F931F921F938AE6EF
:100F500095E09F938F930E94062183E00E94EC0806
:100F600067966FAD6797061B602F80E00E941F0E8B
:100F700062E08DE696E00E94E2030FB6F894DEBFD1
:100F80000FBECDBFCA5ADF4F0FB6F894DEBF0FBEFB
:100F9000CDBFDF91CF911F910F91FF90EF900895FA
:100FA000EF92FF921F93CF93DF93C82FE82FF0E0CB
:100FB000E05CFE4F808190E00E94B6106C2F80E0D4
:100FC0000E941F0E62E08DE696E00E94E20361E05F
:100FD0006C1B80E00E941F0E60E28DE696E00E948E
:100FE000E20380E4E82E81E0F82E10E0612F85E036
:100FF0000E941F0EC4E0D0E0F701808190E0C81786
:10100000D90714F46FEF01C06BED8DE696E00E94F6
:10101000E2036996C033F1E0DF0771F78FEFE81A5A
:10102000F80A113011F011E0E1CFDF91CF911F915B
:10103000FF90EF90089561E08EE00E941F0E609196
:101040003F0170E080E090E04AE00C940F11CF93F4
:10105000DF930E94A3108C3591058CF0803F9105A1
:101060008CF08C3721E0920784F0883522E09207DB
:101070007CF0843393407CF4C4E0D0E00EC0C0E048
:10108000D0E00BC0C1E0D0E008C0C2E0D0E005C0B5
:10109000C3E0D0E002C0CFEFDFEFD0934301C093B5
:1010A00042018091450190914601C817D90709F482
:1010B00049C082E390E00E94A9060E94A3108C35EB
:1010C00091058CF0803F91058CF08C3721E09207E0
:1010D00084F0883522E092077CF0843393407CF4DE
:1010E00084E090E00EC080E090E00BC081E090E0F2
:1010F00008C082E090E005C083E090E002C08FEF7E
:101100009FEF90934301809342018C179D07A1F4B8
:10111000909346018093450197FD1AC08091470145
:101120008823B1F04FE050E060E070E08DED94E096
:10113000DF91CF910C94460E8FEF9FEF9093430178
:101140008093420160E081E1DF91CF910C9428020D
:10115000DF91CF910895FF920F931F93CF93DF9369
:1011600026E0829FC0011124EC01609604E615E0A0
:1011700086E0F82EF00ECE010E94A706F8018193BA
:101180008F012196FE12F7CFDF91CF911F910F9122
:10119000FF900895CF92DF92EF92FF920F931F93EB
:1011A000CF937C016B018A01C0E08C2F90E0801707
:1011B000910750F4F701E80FF91F60818C0D9D1D18
:1011C0000E94A506CF5FF1CFCF911F910F91FF90A5
:1011D000EF90DF90CF900895CF93C82F80FF08C085
:1011E00060E080E00E941F0E8CE795E00E94340EC4
:1011F000C1FF09C061E080E00E941F0E8AE695E011
:10120000CF910C94340ECF910895EF92FF920F93EB
:101210001F93CF93DF93CDB7DEB7C958D1090FB66F
:10122000F894DEBF0FBECDBFE82E88E8E8EBF2E011
:10123000DE01119601900D928A95E1F781E1F82E79
:10124000F69E8001112481E090E08C0F9D1F800F9D
:10125000911F9F938F931F92FF924CE755E05F93EE
:101260004F93C757DF4F6883C958D0400E9406216B
:101270000C5B1F4F81E090E08C0F9D1F080F191F22
:101280001F930F931F92FF924AE655E05F934F938F
:101290000E94062183E00E94EC080FB6F894DEBF9E
:1012A0000FBECDBFC757DF4F6881C958D0406130EE
:1012B00061F028F0623071F46091470108C08091BC
:1012C000390191E0692F681B02C0609138018FE0FD
:1012D0000E941F0E65E08DE696E00E94E2036E2DEF
:1012E0008FE00E941F0E0E94B611C757DF4F0FB646
:1012F000F894DEBF0FBECDBFDF91CF911F910F914C
:10130000FF90EF9008958F929F92AF92BF92EF92CD
:10131000FF921F93CF93DF93D82F682F80E00E9416
:10132000050984EF91E00E94A9060E940C034B017D
:101330005C0110E0ED2EF12C27E0E20EF11C0E9482
:101340002708809142019091430197FD04C00E94BB
:101350000C034B015C01209142013091430122308A
:10136000310509F441C074F42115310579F02130BB
:10137000310509F040C06D2F80E00E940509C0E0F2
:1013800010E03AC0253031056CF135C0612FC7013E
:101390000E94A50684E690E00E94A90687E090E0FE
:1013A0000E94A70691E0981B9093390188E090E095
:1013B0000E94A70691E0811101C090E0909338014E
:1013C00089E090E00E94A70691E0811101C090E0C1
:1013D000909347016D2F812F0E9405098CEB92E0BD
:1013E0000E94A906C1E008C06D2F81E00E94050996
:1013F000C0E011E001C0C0E084EF91E00E94A906C6
:101400000E940C03DC01CB0188199909AA09BB09C8
:1014100081329E44A105B10518F4CC2309F48FCF85
:10142000DF91CF911F91FF90EF90BF90AF909F9071
:101430008F900C945011DF92EF92FF920F931F93B5
:10144000CF93DF9300D000D01F92CDB7DEB7182F17
:1014500095E0E0E4F3E0DE01119601900D929A959B
:10146000E1F760E774E08CE795E00E94FF20D09000
:101470003E0185E090E00E94A706E82E84E090E01F
:101480000E94A706F82E83E090E00E94A706082F8E
:1014900082E090E00E94A706282F8D2D6AE00E942E
:1014A0007F1E1F929F931F928F931F92EF921F9206
:1014B000FF921F920F931F922F9321E834E03F93E6
:1014C0002F931F9281E18F932AE635E03F932F936C
:1014D0000E94062183E00E94EC080FB6F894DEBF5C
:1014E0000FBECDBFE1E0F0E0EC0FFD1FE10FF11DFD
:1014F00061E080810F900F900F900F900F90DF911F
:10150000CF911F910F91FF90EF90DF900C941F0EE1
:10151000CF92EF92FF920F931F93F70180811F925A
:101520008F93F80180811F928F93F90181818F93AE
:1015300080818F93FA0180811F928F93FB018081BC
:101540001F928F932CE934E03F932F931F9281E1F8
:101550008F932AE635E03F932F930E94062182E085
:101560000E94EC0861E08C2D0E941F0E8DB79EB783
:1015700040960FB6F8949EBF0FBE8DBF8CE291E0EF
:101580001F910F91FF90EF90CF900C94A906CF92EE
:10159000DF92EF92FF92CF9360E082E00E941F0EF5
:1015A000C12CD12C7601C394C1E060E28DE696E0B7
:1015B0000E94E203809164058C2331F04AE0C70168
:1015C000B6010E940F1105C067E08DE696E00E940B
:1015D000E203CC0F8FEFC81AD80AE80AF80A98E09D
:1015E000C916D104E104F10401F7809169051F9245
:1015F0008F93809168051F928F93809167051F924A
:101600008F93809166051F928F938091650590E07E
:1016100001969F938F9387EB94E09F938F931F92F4
:1016200081E18F938AE695E09F938F930E94062134
:101630008DB79EB740960FB6F8949EBF0FBE8DBF74
:1016400082E0CF91FF90EF90DF90CF900C94EC0868
:10165000CF92DF92FF920F931F93CF93DF93CDB77B
:10166000DEB762970FB6F894DEBF0FBECDBFF82E7F
:1016700060E080E00E941F0E61E06F0D4AE0CE0145
:101680006A3008F04DC001960E94EF0118861F8253
:101690001A8619861C861B8641E050E061ED74E0D5
:1016A000CE0107960E94CE012D813E81C980DA804D
:1016B0000B851C85C114D10409F45AC021153105CC
:1016C000A9F0020F131FB801CE0107960E949501E1
:1016D000882309F44DC02F8138858B859C85B60100
:1016E000820F931F0E94FF201C870B871E861D867A
:1016F000188A1F861A8A198A6F8178856115710583
:1017000031F04B855C85CE010D960E94CE018F8114
:1017100098850E948F1F89819A810E948F1F03C024
:101720000D960E94EF0149895A896D857E858DE667
:1017300096E00E9495008D859E850E948F1F8F2DBB
:101740000E94AB080E94C70A60E081E00E941F0E61
:101750000E94B61162960FB6F894DEBF0FBECDBFE1
:10176000DF91CF911F910F91FF90DF90CF9008955F
:10177000CE0107960E94BC01B9CF0F931F93CF9360
:10178000DF9363ED74E08CE795E00E94FF2064EE48
:1017900074E08AE695E00E94FF2083E00E94EC0856
:1017A00061E080E00E941F0E02E711E0C1E0D0E09E
:1017B000F80161918F0170E080E090E040E10E94CB
:1017C0000F11C630D10511F060E205C080913F01D4
:1017D000863028F469E28DE696E00E94E20380916B
:1017E0003F01282F30E0C217D30739F4863028F4A0
:1017F00068E28DE696E00E94E2032196C730D105AB
:10180000B9F6DF91CF911F910F9108950F931F9318
:10181000CF93DF93CDB7DEB7AE970FB6F894DEBFA8
:101820000FBECDBF80E090E00E94A7068E3209F087
:10183000CCC081E090E00E94A70680933F0182E047
:1018400090E00E94A706182F83E090E00E94A70670
:10185000282F30E0C9014CE3149F800D911D112405
:1018600090933D0180933C0184E090E00E94A706A4
:10187000182F85E090E00E94A706282F30E0C901CC
:101880004CE3149F800D911D112490933B01809394
:101890003A0186E090E00E94A70680933E0187E02F
:1018A00090E00E94A70691E0981B9093390188E090
:1018B00090E00E94A70691E0811101C090E0909312
:1018C000380189E090E00E94A70691E0811101C0F3
:1018D00090E0909347018AE090E00E94A7068093F1
:1018E0007B058BE090E00E94A706882341F080935F
:1018F00040018CE090E00E94A706809341011F9276
:1019000088E18F9385EF94E09F938F931F9211E16D
:101910001F938CE795E09F938F930E9406211F925F
:1019200086E08F9380913F011F928F9388E095E02E
:101930009F938F931F921F938AE695E09F938F93B7
:101940000E94062183E00E94EC080FB6F894DEBFE7
:101950000FBECDBF809138018823A1F048EC50E044
:1019600060E070E080EE96E00E94460E8CED90E024
:101970000E94A90644E650E060E070E08DE49AE041
:101980000E94460E84EF96E00E94A9061F928FE007
:101990008F931F9282E08F938BE195E09F938F93BB
:1019A0001F9281E18F938CE795E09F938F930E9424
:1019B00006216FE275E08AE695E00E94FF2083E051
:1019C0000E94EC088CED95E06AC088E2E5E4F3E063
:1019D000DE01119601900D928A95E1F780913F0109
:1019E0008A83809138018987809147018A87809115
:1019F0007B058B8748E250E060E070E0CE01019605
:101A00000E94CA0886E0EDE6F3E0DE0199960190B7
:101A10000D928A95E1F708E210E046E050E0B80147
:101A2000CE0189960E94CA080A5F1F4F003A11052D
:101A3000A1F760E475E08CE795E00E94FF208091BB
:101A40003F011F928F9381E595E09F938F931F92A3
:101A500081E18F938AE695E09F938F930E94062100
:101A600083E00E94EC0884EC99E00E94A9060E94A1
:101A7000BD0B48EC50E060E070E08DE49AE00E941D
:101A8000460E8CED90E00E94A90644E650E060E02E
:101A900070E080EE96E00E94460E80ED97E00E9496
:101AA000A9060FB6F894DEBF0FBECDBFAE960FB637
:101AB000F894DEBF0FBECDBFDF91CF911F910F9184
:101AC000089590E0FC01E154FF4F2491FC01E5559D
:101AD000FF4F8491882399F090E0880F991FFC01B3
:101AE000EF55FF4FA591B491FC01E956FF4F859149
:101AF00094918FB7F894EC91E22BEC938FBF0895FB
:101B0000EF92FF920F931F93CF93DF93EC0162301C
:101B100018F08F8588608F876B8B1C8A80E48D8B93
:101B200080E18E8B80E58F8B8C810E94610D8D8191
:101B30008F3F11F00E94610D8E810E94610D7E0128
:101B400087E0E80EF11C00E010E08F8584FD03C003
:101B500084E090E002C088E090E00817190744F4A0
:101B6000F70181917F010E94610D0F5F1F4FEDCF43
:101B70008BE39DE00197F1F760E08C810E942802E1
:101B800060E08E810E9428028D818F3F19F060E015
:101B90000E9428026F8564FD1DC063E0CE010E9493
:101BA00062030BE416E4C8010197F1F763E0CE018C
:101BB0000E946203C8010197F1F763E0CE010E9421
:101BC000620383E592E00197F1F762E0CE010E94A3
:101BD000620316C06062CE010E94E8038BE496E4C3
:101BE0000197F1F76F856062CE010E94E80383E5FB
:101BF00092E00197F1F76F856062CE010E94E803E1
:101C00006F856062CE010E94E80384E0888B6CE0FF
:101C1000CE010E94E80361E0CE010E94E8038BE35D
:101C20009FE10197F1F782E0898B66E0CE01DF91B9
:101C3000CF911F910F91FF90EF900C94E8036430C7
:101C400008F063E090918006691710F06FEF690F5C
:101C5000E62FF0E0E359F94F9489682F690F606827
:101C60008DE696E00C94E803009769F0FC01019082
:101C70000020E9F73197AF01481B590BBC018DE6F5
:101C800096E00C94950080E090E008953F924F928A
:101C90005F926F927F928F929F92AF92BF92CF92FC
:101CA000DF92EF92FF920F931F93CF93DF9300D0B9
:101CB00000D0CDB7DEB720914801213121F02F3F70
:101CC00009F02BC204C0E6E9F0E0349076C021E1CF
:101CD00020934801E6E9F0E0E491EF3F09F41DC2EA
:101CE000E13011F1E23009F443C0E11165C014BCE8
:101CF00015BC24B5226024BD25B5216025BDECEBC3
:101D0000F0E0E491F0E0EE0FFF1FE956FF4F259160
:101D1000349130938A0620938906E0EDF0E0E49157
:101D2000E0938806312C4BC0109280001092810005
:101D30002091810028602093810020918100216002
:101D400020938100ECEBF0E0E491F0E0EE0FFF1F58
:101D5000E956FF4F259134913093870620938606EC
:101D6000E0EDF0E0E491E09385063324339427C05E
:101D70001092B0001092B1002091B0002260209328
:101D8000B0002091B10021602093B100ECEBF0E0B5
:101D9000E491F0E0EE0FFF1FE956FF4F25913491DB
:101DA00030935C0620935B06E0EDF0E0E491E09375
:101DB0005A06B2E03B2E03C03E2E37FCAEC12A01CC
:101DC0003B018C0181E10E94610D4801A12CB12CE5
:101DD000832D8D7F09F0BBC060E072E18AE790E05F
:101DE000A50194010E94D51E29833A834B835C830D
:101DF00069017A0121E0C21AD108E108F1088FEFE8
:101E0000C816D104E104F10409F008F44CC060E400
:101E100072E48FE090E0A50194010E94D51E690153
:101E20007A01E1E0CE1AD108E108F108F2E03F12B0
:101E300020C02FEFC216D104E104F10409F008F428
:101E40006AC160E970ED83E090E0A50194010E9411
:101E5000D51E69017A0181E0C81AD108E108F108AC
:101E6000EFEFCE16D104E104F10409F0D0F583E0E0
:101E700067C0FFEFCF16D104E104F104B1F0A8F080
:101E800068E478EE81E090E0A50194010E94D51EFF
:101E900069017A0181E0C81AD108E108F10833200C
:101EA00009F4DFC02FC181E001C082E03320A1F03E
:101EB00047C089819A81AB81BC812AE0B595A795FD
:101EC000979587952A95D1F76C017D0121E0C21A7B
:101ED000D108E108F10885E095B5987F892B85BD8B
:101EE0006FC068E478EE81E090E0A50194010E9463
:101EF000D51E69017A01F1E0CF1AD108E108F10895
:101F00002FEFC216D104E104F10409F008F4A7C0D0
:101F100064E274EF80E090E0A50194010E94D51E78
:101F200069017A01E1E0CE1AD108E108F108FFEF7A
:101F3000CF16D104E104F10411F008F0B4C085E03B
:101F40009091B100987F892B8093B10039C060E0F7
:101F500072E18AE790E0A50194010E94D51E690113
:101F60007A0181E0C81AD108E108F108C114D1044E
:101F7000E1E0EE06F10488F068E478EE81E090E0BC
:101F8000A50194010E94D51E69017A01F1E0CF1AE2
:101F9000D108E108F10893E001C091E021E032129C
:101FA0000FC080918100887F892B8093810041142C
:101FB00051046104710449F42FEF3FEFA9012DC0D2
:101FC000411451046104710471F0D801AA0FBB1FC0
:101FD000A30192010E942E1E28EE33E040E050E063
:101FE0000E94B31E03C02FEF3FEFA90181E0381616
:101FF000A1F0E2E03E1619F131108FC0C7BC20936A
:102000008F063093900640939106509392068091EC
:102010006E00826080936E0080C0D0928900C09272
:10202000880020938B0630938C0640938D06509346
:102030008E0680916F00826080936F006EC0C092A8
:10204000B30020935D0630935E0640935F06509385
:102050006006809170008260809370005EC084E0B2
:102060006FCFFFEFCF16D104E104F104D1F0C8F037
:1020700062E17AE780E090E0A50194010E94D51E1C
:1020800069017A0181E0C81AD108E108F108EFEF8F
:10209000CE16D104E104F10411F008F00ACF84E077
:1020A0001BCF83E019CF62E17AE780E090E0A501E1
:1020B00094010E94D51E69017A0181E0C81AD108F5
:1020C000E108F108EFEFCE16D104E104F104C1F00C
:1020D000B8F089819A81AB81BC814AE0B595A7951A
:1020E000979587954A95D1F76C017D0121E0C21A39
:1020F000D108E108F108332009F4EDCE87E020CFC4
:1021000086E0D4CEFFEFCF16D104E104F10409F04C
:1021100050F684E0CBCE82E013CF0F900F900F905B
:102120000F90DF91CF911F910F91FF90EF90DF9073
:10213000CF90BF90AF909F908F907F906F905F9067
:102140004F903F90089580E480937C0080917A00C6
:10215000806480937A0080917A0086FDFCCF809124
:1021600078002091790090E0922B0895CF93DF932F
:10217000EC018AE00E94610D209711F460E004C038
:10218000CF3FD10531F461E08AE0DF91CF910C942B
:102190002802ECE8F0E0E491E330F9F048F4E130B3
:1021A000B9F0E230A1F584B5806284BDC8BD34C009
:1021B000E730E9F0E83019F1E43049F5809180002A
:1021C000806280938000D0938B00C0938A0024C0EB
:1021D00084B5806884BDC7BD1FC0809180008068C1
:1021E00080938000D0938900C093880015C08091AF
:1021F000B00080688093B000C093B3000DC08091A0
:10220000B00080628093B000C093B40005C0C038B5
:10221000D1050CF0B8CFB2CFDF91CF9108958F9256
:102220009F92AF92BF920F931F93CF93DF93CDB73F
:10223000DEB7A1970FB6F894DEBF0FBECDBF19A2CF
:10224000423008F44AE08E010F5D1F4F842E912C1E
:10225000A12CB12CA50194010E94B31EE62FB90157
:10226000CA0101501109EA3014F4E05D01C0E95CD3
:10227000D801EC93232B242B252B61F7C8010E9456
:10228000340EA1960FB6F894DEBF0FBECDBFDF911E
:10229000CF911F910F91BF90AF909F908F90089515
:1022A000EDE6F6E060896E7F608B6860CF010C948C
:1022B000E8032091590690915806213208F04AC04F
:1022C000809135068111FCCF32E03093350631E044
:1022D000309334063FEF309333061092320620934A
:1022E0003106A8E3B6E041E156E0FA013E2F341B87
:1022F000321718F43D913193F9CF109210062091C6
:102300001006990F922B9093100690910F06913022
:1023100061F410920F06909110069093BB0090917B
:10232000BC0093FDF8CF95EC01C095EE9093BC00F6
:10233000909135069230E1F3909133069F3F79F00A
:1023400080913306803241F080913306803331F042
:1023500084E005C081E003C082E001C083E0109208
:10236000370610925906109236060895EDE6F6E00B
:102370006089862F8160808B6960CF010C94E803AF
:10238000EDE6F6E060896D7F608B6860CF010C94AC
:10239000E803EF92FF920F931F93CF93DF931F9267
:1023A000CDB7DEB7162F877028E0829FC0011124B9
:1023B000682F60648DE696E079830E94E803E12E41
:1023C0007981F72E8701085F1F4FF70161917F0127
:1023D0008DE696E00E94E203E016F106B1F70F9059
:1023E000DF91CF911F910F91FF90EF900895109280
:1023F0000E0610920D061092370610925906109292
:10240000350681E08093340610920F0661E082E188
:102410000E94280261E083E10E942802E9EBF0E0DB
:1024200080818E7F808380818D7F808388E480930C
:10243000B80085E48093BC000895CF93DF93CDB7B7
:10244000DEB7E3970FB6F894DEBF0FBECDBF78942A
:1024500084B5826084BD84B5816084BD85B58260A9
:1024600085BD85B5816085BD80916E00816080935A
:102470006E001092810080918100826080938100C3
:1024800080918100816080938100809180008160D3
:10249000809380008091B10084608093B10080912E
:1024A000B00081608093B00080917A008460809356
:1024B0007A0080917A00826080937A0080917A001D
:1024C000816080937A0080917A00806880937A009E
:1024D0001092C10002E711E046E0E42EE00ED801C0
:1024E000FD908D018F2D0E94610D60E08F2D0E9467
:1024F0002802E012F4CF8FE00E94610D60E08FE0CF
:102500000E94280281E10E94610D60E081E10E9449
:1025100028028BE0809390050E94F7110E94F7112A
:1025200062E08DE696E00E94800D8FEF90E00E94C1
:10253000B61060E371E081E00E94C91168E271E0C9
:1025400082E00E94C91160E271E083E00E94C9113B
:1025500068E171E084E00E94C91160E171E085E00A
:102560000E94C91168E071E086E00E94C91160E034
:1025700071E087E00E94C91162E08DE696E00E945A
:10258000E8038BE39FE10197F1F70E94C0110E94DD
:10259000060C85E090E00E94A706F82E84E090E00B
:1025A0000E94A706082F83E090E00E94A706182F3C
:1025B00082E090E00E94A7061F92FF921F920F9365
:1025C0001F921F931F928F9381E993E09F938F93A4
:1025D0001F9211E11F938CE795E09F938F930E94C8
:1025E000062180913E016AE00E947F1E1F929F9308
:1025F0001F928F938AEA93E09F938F931F921F936A
:102600008AE695E09F938F930E94062183E00E94C3
:10261000EC0880ED97E00E94A9060FB6F894DEBFA3
:102620000FBECDBFCE014F960E94EB038CA19091BF
:102630004401981709F4AFC080934401EF8CF12C4A
:10264000F0E3EF1AF8EFFF0A08A124E0029F8001EF
:10265000112409551E4FD9A0CE014F960E946A053C
:10266000FF92EF921F930F931F92DF9234E0839FAC
:10267000C001112485579E4F9F938F938DEB93E05C
:102680009F938F931F9281E18F938CE795E09F93A7
:102690008F930E94062181E00E94EC0861E080E0B7
:1026A0000E941F0E2AA18BA190E04CE3249F800D75
:1026B000911D112490939B0580939A050FB6F89471
:1026C000DEBF0FBECDBF823D9105A1F48CA18F303E
:1026D00089F410917B0511110C94C11C0BC08A8FD9
:1026E0002F5F2B8FCE0149960E94B70417FF02C0BF
:1026F0000C94471D20919A0530919B0580913C01D7
:1027000090913D012817390720F0019628173907C5
:1027100058F080913A0190913B012817390770F0E9
:1027200001962817390750F480918D05811108C052
:1027300081E080938D050E94C4062DC010928D0506
:102740008CA11F928F938BA11F928F938AA11F92AE
:102750008F9381E594E09F938F931F9281E18F93F4
:10276000AAE6B5E0BF93AF930E94062182E00E94E3
:10277000EC080FB6F894DEBF0FBECDBF809199056F
:10278000811109C080919A0590919B052091380193
:1027900021110C94681D61E089E00E941F0ECE019A
:1027A0004F960E946A05C0909A05D0909B05882399
:1027B00019F0823048F001C087E0815011E001C07B
:1027C000110F8A95EAF701C011E0812C00E0EE2498
:1027D000E394F12C802F0E94AB0880916405812343
:1027E00019F1209166058091670590E03CE3239FF5
:1027F000800D911D1124C816D906B4F0809168058A
:102800002091690530E04CE3849F200D311D112497
:10281000C216D3064CF4C7010090650502C0880FAC
:10282000991F0A94E2F7882A0F5F083199F61A82F5
:1028300019821C821B821E821D8247E050E06DEED1
:1028400074E0CE0101960E94CE018091920588230A
:1028500041F080FE03C01092920503C0582D5160D4
:10286000852E80919105882341F080FE04C0882D3B
:102870008E70882E02C010929105882D817091E093
:1028800098279093990590919505992339F088237D
:1028900019F01092950502C0109299059091940537
:1028A000992341F0882321F081E08093990502C0AB
:1028B0001092940580919705882341F081FE03C012
:1028C0001092970503C0982D9260892E80919605ED
:1028D000882341F081FE04C0A82DAD708A2E02C06D
:1028E00010929605F2E7EF2EF1E0FF2E00E010E0E7
:1028F000DD24D394A6E0BA2EB1EAAB2ECC24C39447
:102900008FED982E702E80913F01081708F051C06E
:102910008D2D8821A1F1B1E00B1319C061E070E0A9
:10292000CE0101960E948301DC0190918F05E92F71
:10293000F0E0E858FE4F80818C9381E0890F84306D
:1029400018F480938F050AC010928F0507C0B80154
:10295000CE0101960E948301FC01908260913901B1
:10296000D7018C910E942802711003C0C092930578
:1029700027C0B1E07B1224C07092980521C0B80135
:10298000CE0101960E948301FC01A0828091390151
:102990006C2D681BD7018C910E942802011103C085
:1029A000109293050DC0B1E00B130AC01092980568
:1029B00007C0B801CE0101960E948301FC01B082DC
:1029C000DD0C0F5F1F4FFFEFEF1AFF0A06301105F6
:1029D00009F098CF8091380166E070E0882341F0DB
:1029E000CE0101960E94830124E0DC012C9307C0F4
:1029F000CE0101960E94830121E0FC012083E09139
:102A00009905F0E0E05CFE4F808190E00E94B610F6
:102A10004D815E8169817A818DE696E00E94950004
:102A200089819A810E948F1F80EF90E00E94A90601
:102A30000E942708809142019091430182309105C4
:102A400009F45CC02CF4009709F10197E9F18FC7F4
:102A50008330910509F459C0049709F088C70E9492
:102A60000C036B017C018FEF90E00E94B6100E9476
:102A7000C0110E94501160E080E00E94640784EF62
:102A800091E00E94A906212C312C7EC080919805EE
:102A9000882359F080919705811104C081E08093CB
:102AA00096050DC0109297050AC080919605811178
:102AB00004C081E08093970502C01092960588ECCF
:102AC00090E00E94A90653C78091990581110BC01F
:102AD00080919505811104C081E080939405EFCF2A
:102AE00010929505ECCF80919405811104C081E08E
:102AF00080939505E4CF10929405E1CF61E089E0E1
:102B00000E941F0E0E94C40632C78091930588233D
:102B100059F080919205811104C081E08093910564
:102B2000CECF10929205CBCF80919105811104C038
:102B300081E080939205C3CF10929105C0CF0230FF
:102B4000110509F40BC76CF10330110591F510E084
:102B500073E0272EE4E03E2E622D832D0E94640751
:102B60008EE591E00E94A9060E940C03DC01CB01D6
:102B70008C199D09AE09BF09893C9F4AA105B10581
:102B800008F0F5C61111F3C60E9427080091420112
:102B90001091430117FDD3CF0E940C036B017C0100
:102BA000CECF0115110559F00130110509F4CFC63A
:102BB000DCC60430110509F0D8C611E0CDCFF2E033
:102BC0003F1609F43AC3F31530F0CC24C3943C14F7
:102BD00009F47BC10AC063E0D62E3D1409F43EC45B
:102BE00054E0E52E3E1409F49EC685E0EFE4F1E0E2
:102BF000DE01959601900D928A95E1F7CE014996F6
:102C00000E94EB03CE0149960E946A058F5F88AB54
:102C10008B8D8FA78A8D8EA7898D90E09BA78AA721
:102C20008C8D8DA78D8D8CA760E080E00E941F0E9B
:102C30008AED93E00E94340E4E012FE2820E911C29
:102C40005E0130E3A30EB11CCDA0AE01445D5F4F29
:102C50007A018E01035D1F4F9E01265D3F4F4E5F3F
:102C60005F4FB401C5010E94880A88EE93E00E947C
:102C7000A9060E94B6110E940C032B013C01D12C25
:102C80000E942708009142011091430117FD04C0E2
:102C90000E940C032B013C010230110509F47CC099
:102CA0003CF40115110569F001301105F9F0F5C08A
:102CB0000330110509F4BDC00430110509F4D3C077
:102CC000ECC053E05D1508F0D394E5E2F0E0EC0FC2
:102CD000FD1FED0DF11DC080CE018C967C018E0193
:102CE000035D1F4F9E01265D3F4F52C092E0D916F3
:102CF00041F19D1530F0DD20A1F0A1E0DA16D1F010
:102D000037C0B4E0DB1639F1DB1658F1E5E0DE122E
:102D10002FC088A9873010F48F5F55C0F1E0F8AB61
:102D200027C08FA58F3110F48F5F56C0CC24C39479
:102D3000CFA61EC08EA58C3010F48F5F56C0DEA6C5
:102D400017C08AA59BA58336910514F4019658C037
:102D50001BA61AA60DC08CA58B3310F48F5F5CC028
:102D60001CA68DA5873110F01DA602C08F5F8DA710
:102D7000E5E2F0E0EC0FFD1FED0DF11DC0809E01BE
:102D8000245D3F4F79018E01035D1F4F22503109B1
:102D9000AE01425D5F4F62C032E0D31659F13D157E
:102DA00030F0DD20A9F041E0D416D9F0E1CF54E0B5
:102DB000D51671F1D516A8F185E0D812D9CF88A91A
:102DC000823018F0815088ABD3CF97E098ABD0CF4A
:102DD0008FA5823018F081508FA7CACFAFE1AFA77F
:102DE000C7CF8EA5823018F081508EA7C1CFBCE02E
:102DF000BEA7BECF8AA59BA51816190624F4019775
:102E00009BA78AA7B5CFE3E6F0E0FBA7EAA7B0CF80
:102E10008CA5882319F081508CA7AACF4BE3C42E30
:102E2000CCA68DA5811103C0F7E1FDA7A1CF8150EC
:102E30009ECFD110DA94E5E2F0E0EC0FFD1FED0D2E
:102E4000F11DC080AE01445D5F4F7A018E01035DCC
:102E50001F4F9E01265D3F4F4E5F5F4FB401C5017E
:102E60000E94880A1AC04CA55DA56FA57EA52AA55B
:102E70003BA5C9018053984F803DA7E09A0708F011
:102E8000C90189837A836B835C834D831E82CE0163
:102E900001960E94B70411E001C010E08AEF90E0B3
:102EA0000E94A9060E940C03DC01CB01841995093C
:102EB000A609B709813D9B4FA140B10518F4112324
:102EC00009F4DECE0E9450112EC580E00E94280B2E
:102ED00082EC91E00E94A9060E940C034B015C0168
:102EE000F12C36E0E32E0E94270800914201109158
:102EF000430117FD04C00E940C034B015C0102302A
:102F0000110509F47AC144F40115110559F0013095
:102F1000110509F46AC17AC1053011050CF076C1BA
:102F200011E075C1E4E5F1E0DE0111968E2D01900E
:102F30000D928A95E1F78091900590916405EEE7F6
:102F4000F1E00E2F4EE751E0041B081718F4219111
:102F50009213F7CF0E94B61160E082E00E941F0E2C
:102F600062E08DE696E00E94E20360E082E00E946B
:102F70001F0E82EC91E00E94A9060E940C032B0117
:102F80003C01F6E0FF9EC00111249C01205F3F4FF1
:102F90003AAB29AB10E00E942708C0904201D090C4
:102FA0004301D7FC04C00E940C032B013C0152E0FA
:102FB000C516D10409F471C03CF4C114D10479F0F0
:102FC000CA94CD2801F1F2C0A3E0CA16D10409F4D5
:102FD00097C0B4E0CB16D10409F4B7C0E7C01530F0
:102FE00009F4B2C51F5F60E082E00E941F0E60E23C
:102FF0008DE696E00E94E203E1E0F0E0EC0FFD1FB9
:10300000E10FF11D3AC01123D9F1C12ED12C11309D
:10301000D9F0412F4170F601EC59FA4F5081842FBD
:1030200090E025E0880F991F2A95E1F74696252F15
:1030300030E08217930734F0440F440F540F5F5F62
:10304000508313C0108211C040916505242F30E0D9
:1030500080913F0190E001972817390724F44F5FD2
:103060004093650502C0109265050E94C70AE1E021
:10307000F0E0EC0FFD1FEC0DFD1D61E0808162C0F2
:10308000202F30E08091900590E0019728173907B4
:1030900014F40F5F2BC000E029C0112311F1C12EE1
:1030A000D12C1130A1F0F601EC59FA4F9081812F0B
:1030B0008170992331F09150880F880F981B90836D
:1030C000D4CF8295880F807E895E8083CECF809119
:1030D0006505811102C080913F0181508093650593
:1030E000C4CF011102C0009190050150E02FF0E023
:1030F000E258FE4F8081809364050E94C70A17C082
:10310000112319F0115099F001C015E060E082E040
:103110000E941F0E60E28DE696E00E94E20361E0ED
:10312000E1E0F0E0EC0FFD1FE10FF11DA7CF60E043
:1031300082E00E941F0E62E08DE696E00E94E203AC
:1031400060E082E00E941F0E31C0809168054091CE
:1031500066052091690530E0ECE38E9F200D311D5E
:1031600011248091670590E0FCE34F9F800D911D35
:103170001124821793074CF446E050E069A97AA91C
:1031800084E695E00E94CA080FC06BEE73E08CE7FE
:1031900095E00E94FF206CEF73E08AE695E00E94C4
:1031A000FF2083E00E94EC0821E001C020E08AE4D7
:1031B00091E02BAB0E94A9060E940C03DC01CB011D
:1031C00084199509A609B7092BA981369A4EA1053C
:1031D000B10518F4222309F4DECE8F2D0E94280BAE
:1031E00084EF91E00E94A90611C08F2D90E04797CF
:1031F00014F4F39408C0F12C06C0FF2011F0FA94E7
:1032000002C017E1F12E8F2D0E94280B10E08AE4F6
:1032100091E00E94A9060E940C03DC01CB018819F1
:103220009909AA09BB0981339547A105B10508F0A1
:103230000EC1112309F457CE0AC10E94B61182E0D3
:1032400090E00E94A706682E83E090E00E94A70607
:10325000F82E84E090E00E94A706582E85E090E0CA
:103260000E94A706782E80E00E941B0A84EF91E05E
:103270000E94A9060E940C034B015C0100E0B8E724
:10328000EB2E0E942708C0904201D0904301D7FC4A
:1032900004C00E940C034B015C0152E0C516D1042E
:1032A00009F446C03CF4C114D10481F0CA94CD287D
:1032B00091F066C0A3E0CA16D10409F45EC0B4E080
:1032C000CB16D10409F05CC011E07DC0043009F4D4
:1032D00059C00F5F55C00230A1F018F4013059F009
:1032E00004C00330A9F00430D1F0E6E1E61508F49B
:1032F0004BC0639447C0FAE3FF1508F448C0F39449
:103300003FC0A7E1CA2EC51408F444C0539438C086
:10331000FAE3DF2ED71408F440C0739431C08091D3
:103320003E01883710F48F5F22C010923E0128C002
:10333000023081F018F4013049F004C0033071F01C
:10334000043081F0662061F16A941CC0FF2069F1AD
:10335000FA9416C0552069F15A9412C0772069F189
:103360007A940EC080913E01882321F08150809391
:103370003E0106C0E0923E0103C0002311F101505E
:1033800010E021C010E00FC010E0612C0CC010E074
:10339000F12C19C010E0512C16C010E0712C13C094
:1033A00010E0E7E16E2E00E00EC010E07BE3F72EA8
:1033B0000AC010E068E1562E06C010E05BE3752EEF
:1033C00002C010E004E0662D82E090E00E94A506B5
:1033D0006F2D83E090E00E94A506652D84E090E0CB
:1033E0000E94A506672D85E090E00E94A5066091E9
:1033F0003E0186E090E00E94A506802F0E941B0AF5
:103400008AEF90E00E94A9060E940C03DC01CB0128
:1034100088199909AA09BB0981339547A105B10506
:10342000C8F08F2D90E03CE3639E800D911D112428
:1034300090933D0180933C01872D90E04CE3549E96
:10344000800D911D112490933B0180933A010E94BD
:1034500050116BC2112309F414CFE3CF0E940C0367
:103460002B013C010E94C0110E94501160E080E0DD
:103470000E94F40684EF91E00E94A90600E010E0AB
:10348000CC24CA94DC2CBB24BA9447E3A42E0E941B
:103490002708E0904201F0904301F7FC04C00E942D
:1034A0000C032B013C0152E0E516F10409F41BC2A8
:1034B00044F4E114F104A9F0EA94EF2809F40CC2F1
:1034C00018C2A3E0EA16F10441F0B4E0EB16F104EF
:1034D00009F00FC2FF24F3940DC2F12C06E017E0AF
:1034E00009C2812F90E0FC013197E730F10520F40B
:1034F000EC5CFF4F0C94F41E81E003C082E001C03D
:1035000080E00E9483093BC10E940C032B013C0117
:103510006DE074E08CE795E00E94FF206EE174E0BE
:103520008AE695E00E94FF2083E00E94EC080E945A
:103530001B088EE591E00E94A90696E0992E22E0F4
:10354000822E0E942708E0904201F0904301F7FC90
:1035500004C00E940C032B013C01E2E0EE16F104D2
:1035600019F13CF4E114F10489F0EA94EF2899F0A0
:1035700031C033E0E316F10411F144E0E416F10444
:1035800049F560913F0181E090E020C060913F01EA
:1035900083E090E01BC080913F01863010F48F5F84
:1035A00008C080923F0116C080913F01833020F017
:1035B000815080933F010EC090923F010BC081E08B
:1035C00090E00E94A70680933F0102C00E94A506DA
:1035D00021E001C020E02BAB0E941B088EE591E0AA
:1035E0000E94A9060E940C03DC01CB0184199509F5
:1035F000A609B7092BA989399A43A105B10538F065
:1036000081E090E00E94A70680933F0103C022233F
:1036100009F497CF0E94BD0B80EB94E00E94A906AD
:10362000AEC00E940C032B013C016FE274E08CE7FA
:1036300095E00E94FF2080917B05282F082E000C2A
:10364000330B3F938F93A0E4B4E0BF93AF931F92EB
:1036500081E18F93AAE6B5E0BF93AF930E94062164
:1036600083E00E94EC088EE591E00E94A9060FB667
:10367000F894DEBF0FBECDBF81E1982E0E942708CF
:10368000E0904201F0904301F7FC04C00E940C035B
:103690002B013C0132E0E316F10401F13CF4E114AA
:1036A000F10459F1EA94EF2851F02FC083E0E816B5
:1036B000F104E1F094E0E916F104F9F026C08091FC
:1036C0007B05833614F48F5F0EC048E250E060E063
:1036D00070E08DE49AE00E94460E17C080917B0551
:1036E0008E399CF3815080937B050FC08AE090E077
:1036F0000E94A70680937B0506C060917B058AE047
:1037000090E00E94A50621E001C020E080917B05A9
:10371000482F082E000C550B5F938F93A0E4B4E064
:10372000BF93AF931F929F92AAE6B5E0BF93AF936A
:103730002BAB0E94062182E00E94EC0888EC90E00E
:103740000E94A9060E940C03DC01CB018419950993
:10375000A609B7090FB6F894DEBF0FBECDBF2BA9DF
:1037600089399A43A105B10538F08AE090E00E94BA
:10377000A70680937B0503C0222309F47FCFF12C99
:103780009CC063E080E00E9405090E94501180E027
:103790000E94D00784EF91E00E94A9060E940C03CA
:1037A0002B013C01912C0E942708E0904201F090EF
:1037B0004301F7FC04C00E940C032B013C0182E092
:1037C000E816F10469F14CF4E114F10401F1EA9412
:1037D000EF2899F520E0912C31C0B3E0EB16F1040D
:1037E00019F1E4E0EE16F10441F5609140018BE03F
:1037F00090E00E94A506609141018CE090E00E945B
:10380000A5068FEF90E00E94B61021E017C0E92DC9
:10381000F0E0E05CFE4F8081873E78F4875E0CC06C
:1038200020E0992493940AC0E92DF0E0E05CFE4F7B
:1038300080818E3110F08951808320E0892D2BAB5F
:103840000E94D00784EF91E00E94A9060E940C0319
:10385000DC01CB0184199509A609B7092BA989397F
:103860009A43A105B105C0F08BE090E00E94A70645
:10387000882349F0809340018CE090E00E94A706E5
:103880008093410104C0B0924001A09241018FEFAA
:1038900090E00E94B61021E0D0924301C092420114
:1038A000222309F480CF6BCF61E080E090E00E949A
:1038B000A5060E94060CFF24F394D0924301C09207
:1038C00042010E940C032B013C0128E9421A2AE321
:1038D000520A610871080EC0112359F0011708F04F
:1038E0000150115006C0173021F0011708F40F5F86
:1038F0001F5FF12C602F812F0E94F4068EE591E06E
:103900000E94A9060E940C03DC01CB0184199509D1
:10391000A609B709893C9F4AA105B10530F4FF20EB
:1039200009F4B5CD02C011E001C010E08FEF9FEFA8
:1039300090934301809342010E940C036B017C0130
:1039400048E9C41A4AE3D40AE108F10805C933205A
:1039500061F0231408F02A943A9407C054E0351615
:1039600021F0231408F42394339410E0F5C880E088
:1039700090E0892B11F40C9412130E9400000C9417
:103980001213CE0101960E94EB0389814B816A815B
:1039900090E00E9435059C01A8E1B0E00E94701EF5
:1039A0002C816B017C01C20ED11CE11CF11CA70112
:1039B0009601ACE3B0E00E942E1E2D816B017C01CC
:1039C000C20ED11CE11CF11CA70196010E942E1E03
:1039D0002E81AB01BC01420F511D611D711D812F54
:1039E000012E000C990BAA0BBB0B6A017B01C80EC0
:1039F000D91EEA1EFB1EC701B6012CE330E040E0F1
:103A000050E00E94B31E6E8FCA01B9012CE330E072
:103A100040E050E00E94B31E6D8FCA01B90128E159
:103A200030E040E050E00E94B31E6C8F80E063E91C
:103A30007EEF91E0482F437009F090E0A1E0A80FDD
:103A4000492F50E0FA01E359FE4F2E173F0738F097
:103A5000CB01841B950B280F391F8A2FEACF898F42
:103A600081E0E82FF0E0EB58FF4FE491992319F043
:103A7000823009F4EF5FF0E041E0480F2E173F0776
:103A800010F40C946F132E1B3F0B842FEACF80EDA4
:103A900093E00E94340E61E080E00E941F0E80914E
:103AA0007B05082E000C990B97FF03C0919581951B
:103AB0009109019628EE33E0FC01E29FC001E39FEB
:103AC000900DF29F900D11240E94A9060C947A1378
:103AD0006CE370E00E949F1E892B91F580918E050A
:103AE00081110C94CB1398E1EAE5F1E0DE01119627
:103AF00001900D929A95E1F7CB016CE070E00E9485
:103B00009F1EFC01EE0FFF1FCC24C394D12CCC0EC2
:103B1000DD1EEC0DFD1D4FE150E060E070E08081A6
:103B200091810E94460E81E080938E0583E290E0B1
:103B30000E94A90660E081E10E9428020C94CB1348
:103B400010928E050C94CB1360E082E00E941F0E51
:103B500062E08DE696E00E94E20360E082E00E946F
:103B60001F0E20E010E023CBE1E6F6E01382128284
:103B700088EE93E0A0E0B0E084839583A683B783CA
:103B800087E793E091838083EDE6F6E0138212826B
:103B900089E893E09183808388E084838FEF858335
:103BA00089E0868384E0878385E0808786E081875B
:103BB00087E082871386148615861686178661E04D
:103BC000CF010C94800D4532510520F4423010F0A5
:103BD0000C94EE1DFB011082CB010895BB27FB0165
:103BE0005527AA27880F991FAA1FA41710F0A41BF6
:103BF00083955051B9F7A05DAA3308F0A95DA19350
:103C0000009779F7B111B1931192CB010C94081E72
:103C1000DC01FC01672F71917723E1F7329704C033
:103C20007C916D9370836291AE17BF07C8F30895BE
:103C3000F999FECF92BD81BDF89A992780B5089574
:103C4000262FF999FECF1FBA92BD81BD20BD0FB6B8
:103C5000F894FA9AF99A0FBE019608950E94701E80
:103C6000A59F900DB49F900DA49F800D911D1124D0
:103C700008952F923F924F925F926F927F928F9210
:103C80009F92AF92BF92CF92DF92EF92FF920F93EB
:103C90001F93CF93DF93CDB7DEB7CA1BDB0B0FB6F5
:103CA000F894DEBF0FBECDBF09942A8839884888B2
:103CB0005F846E847D848C849B84AA84B984C88448
:103CC000DF80EE80FD800C811B81AA81B981CE0F3F
:103CD000D11D0FB6F894DEBF0FBECDBFED01089524
:103CE000A29FB001B39FC001A39F700D811D11243D
:103CF000911DB29F700D811D1124911D0895991B76
:103D000079E004C0991F961708F0961B881F7A95D2
:103D1000C9F780950895AA1BBB1B51E107C0AA1FD4
:103D2000BB1FA617B70710F0A61BB70B881F991F5C
:103D30005A95A9F780959095BC01CD01089597FB00
:103D4000072E16F4009407D077FD09D00E948B1E31
:103D500007FC05D03EF4909581959F4F089570958E
:103D600061957F4F0895A1E21A2EAA1BBB1BFD018E
:103D70000DC0AA1FBB1FEE1FFF1FA217B307E4074A
:103D8000F50720F0A21BB30BE40BF50B661F771FA2
:103D9000881F991F1A9469F7609570958095909582
:103DA0009B01AC01BD01CF010895052E97FB1EF4C8
:103DB00000940E94EC1E57FD07D00E94B31E07FC22
:103DC00003D04EF40C94EC1E5095409530952195FF
:103DD0003F4F4F4F5F4F0895909580957095619537
:103DE0007F4F8F4F9F4F0895EE0FFF1F0590F49167
:103DF000E02D0994CF93DF938230910510F482E097
:103E000090E0E0919506F091960620E030E0C0E069
:103E1000D0E0309711F14081518148175907C0F027
:103E20004817590761F482819381209719F09B8389
:103E30008A832BC0909396068093950626C0211501
:103E4000310519F04217530718F49A01BE01DF013A
:103E5000EF010280F381E02DDCCF2115310509F15E
:103E6000281B390B2430310590F412968D919C91CA
:103E700013976115710521F0FB019383828304C0C0
:103E80009093960680939506FD01329644C0FD01FD
:103E9000E20FF31F81939193225031092D933C93AC
:103EA0003AC02091930630919406232B41F420913F
:103EB0004B0130914C01309394062093930620914E
:103EC000490130914A012115310541F42DB73EB722
:103ED00040914D0150914E01241B350BE09193060A
:103EE000F0919406E217F307A0F42E1B3F0B28175E
:103EF000390778F0AC014E5F5F4F2417350748F063
:103F00004E0F5F1F509394064093930681939193B5
:103F100002C0E0E0F0E0CF01DF91CF9108950F9370
:103F20001F93CF93DF93009709F48CC0FC01329765
:103F300013821282009195061091960601151105C3
:103F400081F420813181820F931F2091930630915B
:103F500094062817390779F5F0939406E0939306B1
:103F600071C0D80140E050E0AE17BF0750F4129680
:103F70002D913C911397AD012115310509F1D9011E
:103F8000F3CF9D01DA013383228360817181860F33
:103F9000971F8217930769F4EC0128813981260F56
:103FA000371F2E5F3F4F318320838A819B8193830C
:103FB0008283452B29F4F0939606E093950642C040
:103FC0001396FC93EE931297ED01499159919E013E
:103FD000240F351FE217F30771F480819181840F5C
:103FE000951F029611969C938E93828193811396CE
:103FF0009C938E931297E0E0F0E0D80112968D9199
:104000009C911397009719F0F8018C01F6CF8D91D0
:104010009C9198012E5F3F4F820F931F2091930632
:10402000309194062817390769F4309729F41092D3
:1040300096061092950602C013821282109394067F
:1040400000939306DF91CF911F910F910895A0E007
:10405000B0E0EDE2F0E20C943D1EEC01009721F49B
:10406000CB010E94FA1EB8C0FC01E60FF71F9C01AD
:1040700022503109E217F30708F4ACC0D9010D91C1
:104080001C91119706171707B0F00530110508F4B9
:104090009FC0C80104978617970708F499C002507B
:1040A0001109061B170B019311936D937C93CF019C
:1040B0000E948F1F8DC05B01A01AB10A4C01800EB7
:1040C000911EA0919506B091960640E050E0E12C3B
:1040D000F12C109709F44AC0A815B905D1F56D90D7
:1040E0007C901197630182E0C80ED11CCA14DB04D6
:1040F00080F1A3014A195B096A0182E0C80ED11C54
:104100001296BC9012971396AC91B5E0CB16D104E1
:1041100040F0B282A38351834083D9016D937C9395
:104120000AC00E5F1F4FC301800F911FF9019183D9
:104130008083EB2DFA2FE114F10431F0D7011396AF
:10414000FC93EE93129744C0F0939606E093950685
:104150003FC08D919C9111974817590708F4AC0105
:104160007D0112960D90BC91A02DB3CF8091930646
:104170009091940688159905E1F446175707C8F4FD
:104180008091490190914A01009741F48DB79EB703
:1041900040914D0150914E01841B950BE817F90792
:1041A000C8F4F0939406E0939306F9017183608359
:1041B0000FC0CB010E94FA1E7C01009759F0A801A4
:1041C000BE010E94F620CE010E948F1FC70104C0CD
:1041D000CE0102C080E090E0CDB7DEB7EEE00C94F7
:1041E000591E81E090E0F8940C94B423FB01DC01AB
:1041F00002C001900D9241505040D8F70895FB0144
:10420000DC0101900D920020E1F70895AEE0B0E0EE
:10421000ECE0F1E20C94471E0D891E898F89988D80
:1042200026E02C831A83098397FF02C080E090E880
:1042300001979E838D83AE01455E5F4F698D7A8DB8
:10424000CE0101960E9436214D815E8157FD0AC044
:104250002F813885421753070CF49A01F801E20FB9
:10426000F31F10822E96E4E00C94631EACE0B0E0E5
:10427000ECE3F1E20C94391E7C016B018A01FC0134
:1042800017821682838181FFBDC1CE0101964C0148
:10429000F7019381F60193FD859193FF81916F0161
:1042A000882309F4ABC1853239F493FD859193FFDE
:1042B00081916F01853229F4B70190E00E941E239D
:1042C000E7CF512C312C20E02032A0F48B3269F062
:1042D00030F4803259F0833269F420612CC08D3281
:1042E00039F0803339F4216026C02260246023C075
:1042F000286021C027FD27C030ED380F3A3078F410
:1043000026FF06C0FAE05F9E300D1124532E13C025
:104310008AE0389E300D1124332E20620CC08E327C
:1043200021F426FD6BC1206406C08C3611F4206890
:1043300002C0883641F4F60193FD859193FF819187
:104340006F018111C1CF982F9F7D9554933028F430
:104350000C5F1F4FFFE3F9830DC0833631F08337C5
:1043600071F0833509F05BC022C0F8018081898338
:104370000E5F1F4F44244394512C540115C0380143
:10438000F2E06F0E711CF801A080B18026FF03C01F
:10439000652D70E002C06FEF7FEFC5012C870E9492
:1043A00013232C0183012C852F77222E17C038016F
:1043B000F2E06F0E711CF801A080B18026FF03C0EF
:1043C000652D70E002C06FEF7FEFC5012C870E9462
:1043D00008232C012C852068222E830123FC1BC07E
:1043E000832D90E048165906B0F4B70180E290E0C2
:1043F0000E941E233A94F4CFF50127FC859127FEF5
:1044000081915F01B70190E00E941E2331103A9420
:10441000F1E04F1A51084114510471F7E5C0843698
:1044200011F0893639F5F80127FF07C060817181E5
:10443000828193810C5F1F4F08C060817181072EBC
:10444000000C880B990B0E5F1F4F2F76722E97FF73
:1044500009C090958095709561957F4F8F4F9F4FC4
:104460002068722E2AE030E0A4010E945623A82E74
:10447000A81844C0853729F42F7EB22E2AE030E0F8
:1044800025C0F22FF97FBF2E8F36C1F018F4883582
:1044900079F0B4C0803719F0883721F0AFC02F2FE2
:1044A0002061B22EB4FE0DC08B2D8460B82E09C0E1
:1044B00024FF0AC09F2F9660B92E06C028E030E086
:1044C00005C020E130E002C020E132E0F801B7FE93
:1044D00007C060817181828193810C5F1F4F06C08C
:1044E0006081718180E090E00E5F1F4FA4010E9407
:1044F0005623A82EA818FB2DFF777F2E76FE0BC023
:10450000372D3E7FA51450F474FE0AC072FC08C01B
:10451000372D3E7E05C0BA2C372D03C0BA2C01C002
:10452000B52C34FF0DC0FE01EA0DF11D80818033F2
:1045300011F4397E09C032FF06C0B394B39404C0AD
:10454000832F867809F0B39433FD13C030FF06C083
:104550005A2CB31418F4530C5B18B32CB31468F42E
:10456000B70180E290E03C870E941E23B3943C8513
:10457000F5CFB31410F43B1801C0312C34FF12C036
:10458000B70180E390E03C870E941E233C8532FF08
:1045900017C031FD03C088E790E002C088E590E0D5
:1045A000B7010CC0832F867859F031FF02C08BE22F
:1045B00001C080E237FD8DE2B70190E00E941E232A
:1045C000A51438F4B70180E390E00E941E235A94AA
:1045D000F7CFAA94F401EA0DF11D8081B70190E0B4
:1045E0000E941E23A110F5CF332009F451CEB7014C
:1045F00080E290E00E941E233A94F6CFF701868174
:10460000978102C08FEF9FEF2C96E2E10C94551E2C
:10461000FC010590615070400110D8F7809590958D
:104620008E0F9F1F0895FC01615070400190011092
:10463000D8F7809590958E0F9F1F08950F931F9325
:10464000CF93DF93FB01238121FD03C08FEF9FEF09
:1046500028C022FF16C04681578124813581421728
:10466000530744F4A081B1819D012F5F3F4F3183F7
:1046700020838C93268137812F5F3F4F378326839A
:1046800010C0EB01092F182F0084F185E02D09954A
:10469000892BE1F68E819F8101969F838E83812FE6
:1046A000902FDF91CF911F910F910895FA01AA27C2
:1046B000283051F1203181F1E8946F936E7F6E5F65
:1046C0007F4F8F4F9F4FAF4FB1E03ED0B4E03CD013
:1046D000670F781F891F9A1FA11D680F791F8A1FF6
:1046E000911DA11D6A0F711D811D911DA11D20D05D
:1046F00009F468943F912AE0269F11243019305D17
:104700003193DEF6CF010895462F4770405D419307
:10471000B3E00FD0C9F7F6CF462F4F70405D4A3354
:1047200018F0495D31FD4052419302D0A9F7EACF1C
:10473000B4E0A6959795879577956795BA95C9F74B
:1047400000976105710508959B01AC010A2E06943E
:104750005795479537952795BA95C9F7620F731FF7
:0C476000841F951FA01D0895F894FFCF42
:10476C0000000E0A0E000000001B0E040E1B0000C1
:10477C00000103161C080000040E0E0E1F0004009E
:10478C00001008040201000000080C0E0C080000C8
:10479C00050F0E0E1F08100001019D0471020D047F
:1047AC00FF37FFFF41FFFF01FF000097068000026B
:1047BC0005080B0E000206090C0F7D06E0064907E2
:1047CC00B8072D08A9082D09B9094D0AEA0A900B5A
:1047DC00400C0B0D0203100C2D037C2F10027F1FBD
:1047EC00600102040810204000180653756E004D3D
:1047FC006F6E00547565005765640054687500460B
:10480C007269005361740053756E004A616E004604
:10481C006562004D617200417072004D6179004A11
:10482C00756E004A756C0041756700536570004FDA
:10483C006B74004E6F7600446563002053657420E2
:10484C00686F757220626565702020002053657456
:10485C00206B657920746F6E6520202000205365D5
:10486C00742072656C617920747970652000205316
:10487C006574206E756D206368616E6E656C0020CA
:10488C005365742074696D652061646A7573740076
:10489C0020536574206261636B6C696768742020B7
:1048AC00002044656661756C742076616C756520BA
:1048BC002000204D61696E206D656E7520202020D2
:1048CC0020200020536574206461746520262074B8
:1048DC00696D65002053657474696E672074696D29
:1048EC0065727320002046656564696E672074618B
:1048FC00736B202020002053797374656D206D65D7
:10490C006E752020202000204D656E75206578691D
:10491C007420202020202000506F73697469766504
:10492C002072656C6179202000486F757220426599
:10493C006570204F6666202020004B6579732054EB
:10494C006F6E65204F666620202000204461792020
:10495C00202020202020202020202000496E766559
:10496C00727465642072656C6179202000486F75E3
:10497C00722042656570204F6E20202020004B6510
:10498C00797320546F6E65204F6E202020200020FC
:10499C004E67742020202020202020202020200062
:1049AC000104070A0F2E040919132D03000101003D
:1049BC00FF370000001F00071415007F011028139B
:1049CC00146000091E15002A020737153755041606
:1049DC00001700000000004E011E017E01F20016BF
:1049EC00010201F30000000000E20395007E017D4E
:1049FC00014665656420253032643A2530326420E6
:104A0C00253032643A2530326400042064757261BA
:104A1C0074696F6E2532642E256420730025337300
:104A2C002C2025303264202533732025303464004B
:104A3C0041646A757374696E6700536574204461D0
:104A4C00746520262054696D653A0054696D657251
:104A5C0020736574206572726F72210057726974CD
:104A6C0065206F6C642076616C75652E0020536533
:104A7C007420746865206E756D6265722000206FFD
:104A8C0066206368616E6E656C733A20202000535B
:104A9C006574207468652076616C7565206F66009E
:104AAC0074696D652061646A7573743A202533648A
:104ABC0000253032643A253032643A253032642095
:104ACC00202020202020200046656564696E670048
:104ADC00466565643120466565643220AE44757266
:104AEC0000253032643A2530326420253032643A65
:104AFC0025303264202532642E2564002025303286
:104B0C00642E253032642E253032642025303264F8
:104B1C003A253032642000436825643A202530322F
:104B2C00643A25303264FD253032643A25303264E3
:104B3C000030004F75742D6368616E6E656C732068
:104B4C006865780020202020202020202020202094
:104B5C00202020200025303264206F6E2F6F666677
:104B6C002074696D65727300666F722025642F2541
:104B7C0064206368616E6E656C7300566572736950
:104B8C006F6E202532642E2530326420627900202D
:104B9C0020766B2E63632F365A3247513720200014
:104BAC005772697474656E2074696D6520666F72D6
:104BBC00002564206368616E6E656C20454550521B
:044BCC004F4D000049
:107800000C94343C0C94513C0C94513C0C94513CE1
:107810000C94513C0C94513C0C94513C0C94513CB4
:107820000C94513C0C94513C0C94513C0C94513CA4
:107830000C94513C0C94513C0C94513C0C94513C94
:107840000C94513C0C94513C0C94513C0C94513C84
:107850000C94513C0C94513C0C94513C0C94513C74
:107860000C94513C0C94513C11241FBECFEFD8E036
:10787000DEBFCDBF11E0A0E0B1E0ECE9FFE702C060
:1078800005900D92A230B107D9F712E0A2E0B1E065
:1078900001C01D92AD30B107E1F70E942D3D0C945F
:1078A000CC3F0C94003C982F959595959595959582
:1078B000905D8F708A307CF0282F295A8091C0000B
:1078C00085FFFCCF9093C6008091C00085FFFCCF60
:1078D0002093C6000895282F205DF0CF982F809127
:1078E000C00085FFFCCF9093C6000895EF92FF92F1
:1078F0000F931F93EE24FF2487018091C00087FD22
:1079000017C00894E11CF11C011D111D81E4E8164B
:1079100082E4F8068FE0080780E0180770F3E09132
:107920000401F091050109958091C00087FFE9CF1E
:107930008091C6001F910F91FF90EF9008950E94D3
:10794000763C982F8091C00085FFFCCF9093C600B5
:1079500091362CF490330CF09053892F089597555D
:10796000892F08951F930E949F3C182F0E949F3CCF
:107970001295107F810F1F9108951F93182F882350
:1079800021F00E94763C1150E1F71F9108951F935A
:10799000182F0E94763C803249F0809103018F5F5E
:1079A000809303018530C1F01F9108958091C0003C
:1079B00085FFFCCF84E18093C6008091C00085FFE5
:1079C000FCCF1093C6008091C00085FFFCCF80E102
:1079D0008093C6001F910895E0910401F091050184
:1079E00009951F9108950E94763C803241F0809164
:1079F00003018F5F80930301853081F008958091AA
:107A0000C00085FFFCCF84E18093C6008091C00058
:107A100085FFFCCF80E18093C6000895E0910401CA
:107A2000F09105010995089540E951E08823A1F0FE
:107A30002D9A28EE33E0FA013197F1F721503040CA
:107A4000D1F72D9828EE33E0FA013197F1F7215064
:107A50003040D1F7815061F708953F924F925F9285
:107A60006F927F928F929F92AF92BF92CF92DF924E
:107A7000EF92FF920F931F93CF93DF93000080E16B
:107A80008093C4001092C50088E18093C10086E015
:107A90008093C2005098589A259A81E00E94143D24
:107AA00024E1F22E9EE1E92E85E9D82E0FE0C02ECA
:107AB00010E1B12EAA24A394B1E49B2EA6E58A2E50
:107AC000F2E57F2EE0E26E2E79E4572E63E5462E36
:107AD00050E5352E0E94763C8033B1F18133B9F107
:107AE000803409F46FC0813409F476C0823409F41B
:107AF00085C0853409F488C0803531F1823521F1A3
:107B0000813511F1853509F485C0863509F48DC0BC
:107B1000843609F496C0843709F403C1853709F423
:107B200072C1863709F466C0809103018F5F80932C
:107B30000301853079F6E0910401F0910501099582
:107B40000E94763C803351F60E94F33CC3CF0E94E2
:107B5000763C803249F78091C00085FFFCCFF092DF
:107B6000C6008091C00085FFFCCF9092C600809136
:107B7000C00085FFFCCF8092C6008091C00085FFC9
:107B8000FCCF7092C6008091C00085FFFCCF609250
:107B9000C6008091C00085FFFCCF5092C600809146
:107BA000C00085FFFCCF4092C6008091C00085FFD9
:107BB000FCCF3092C6008091C00085FFFCCFB09210
:107BC000C60088CF0E94763C863808F4BDCF0E945C
:107BD000763C0E94F33C7ECF0E94763C803809F4CC
:107BE0009CC0813809F40BC1823809F43CC1883942
:107BF00009F48FC080E00E94C73C6CCF84E10E94F2
:107C0000BD3C0E94F33C66CF85E00E94BD3C0E94D3
:107C1000F33C60CF0E94763C809306010E94763C44
:107C2000809307010E94F33C55CF0E94763C80333D
:107C300009F41DC183E00E94BD3C80E00E94C73C66
:107C400049CF0E94763C809309020E94763C809343
:107C5000080280910C028E7F80930C020E94763C79
:107C6000853409F415C18091080290910902892B8D
:107C700089F000E010E00E94763CF801E85FFE4FDA
:107C800080830F5F1F4F80910802909109020817AF
:107C9000190788F30E94763C803209F045CF809125
:107CA0000C0280FF01C16091060170910701660F0F
:107CB000771F7093070160930601A0910802B091AD
:107CC00009021097C9F0E8E0F1E09B01AD014E0F09
:107CD0005F1FF999FECF32BD21BD819180BDFA9A17
:107CE000F99A2F5F3F4FE417F50799F76A0F7B1F4B
:107CF00070930701609306018091C00085FFFCCF5F
:107D0000F092C6008091C00085FFFCCFB092C60003
:107D1000E1CE83E00E94C73CDDCE82E00E94C73CFA
:107D2000D9CE0E94763C809309020E94763C8093D3
:107D300008028091060190910701880F991F909386
:107D40000701809306010E94763C853409F4A6C0A1
:107D500080910C028E7F80930C020E94763C8032D0
:107D600009F0B8CE8091C00085FFFCCFF092C6002C
:107D7000609108027091090261157105B9F140E046
:107D800050E080910C02A82FA170B82FB27011C0E2
:107D9000BB2309F45CC0E0910601F0910701319624
:107DA000F0930701E09306014F5F5F4F46175707B7
:107DB000E8F4AA2369F3F999FECF209106013091E6
:107DC000070132BD21BDF89A90B58091C00085FFB2
:107DD000FCCF9093C6002F5F3F4F30930701209355
:107DE00006014F5F5F4F4617570718F38091C00099
:107DF00085FDE5CE8091C00085FFF8CFE0CE81E023
:107E00000E94C73C67CE0E94763C803209F08CCE3F
:107E10008091C00085FFFCCFF092C6008091C00029
:107E200085FFFCCFE092C6008091C00085FFFCCFAB
:107E3000D092C6008091C00085FFFCCFC092C600E2
:107E40008091C00085FFFCCFB092C60043CEE09188
:107E50000601F091070194918091C00085FFFCCF4D
:107E60009093C6009CCF80E10E94C73C33CE0E9415
:107E7000763C0E94763C182F0E94763C112309F430
:107E800083C0113009F484C08FE00E94C73C22CE29
:107E900080910C02816080930C02E5CE80910C02EF
:107EA000816080930C0259CF809107018823880F4D
:107EB000880B8A2180930B02809106019091070123
:107EC000880F991F90930701809306018091080203
:107ED00080FF09C080910802909109020196909359
:107EE000090280930802F894F999FECF1127E091D6
:107EF0000601F0910701C8E0D1E08091080290915D
:107F00000902103091F40091570001700130D9F34B
:107F100003E000935700E89500915700017001308D
:107F2000D9F301E100935700E89509901990009169
:107F3000570001700130D9F301E000935700E89534
:107F40001395103498F011270091570001700130FB
:107F5000D9F305E000935700E895009157000170B0
:107F60000130D9F301E100935700E895329602976A
:107F700009F0C7CF103011F00296E5CF112480919F
:107F8000C00085FFB9CEBCCE8EE10E94C73CA2CD19
:0C7F900085E90E94C73C9ECDF894FFCF0D
:027F9C00800063
:040000030000780081
:00000001FF
